{
  "_format": "hh-sol-artifact-1",
  "contractName": "OptimisticP2P",
  "sourceName": "contracts/OptimisticP2P.sol",
  "abi": [
    {
      "inputs": [],
      "stateMutability": "nonpayable",
      "type": "constructor"
    },
    {
      "inputs": [
        {
          "internalType": "address",
          "name": "owner",
          "type": "address"
        }
      ],
      "name": "OwnableInvalidOwner",
      "type": "error"
    },
    {
      "inputs": [
        {
          "internalType": "address",
          "name": "account",
          "type": "address"
        }
      ],
      "name": "OwnableUnauthorizedAccount",
      "type": "error"
    },
    {
      "anonymous": false,
      "inputs": [
        {
          "indexed": true,
          "internalType": "uint256",
          "name": "appealId",
          "type": "uint256"
        },
        {
          "indexed": false,
          "internalType": "enum OptimisticP2P.AppealDecision",
          "name": "daoVote",
          "type": "uint8"
        }
      ],
      "name": "DAOVoted",
      "type": "event"
    },
    {
      "anonymous": false,
      "inputs": [
        {
          "indexed": true,
          "internalType": "address",
          "name": "merchant",
          "type": "address"
        },
        {
          "indexed": true,
          "internalType": "address",
          "name": "token",
          "type": "address"
        },
        {
          "indexed": true,
          "internalType": "uint256",
          "name": "amount",
          "type": "uint256"
        }
      ],
      "name": "MerchantStaked",
      "type": "event"
    },
    {
      "anonymous": false,
      "inputs": [
        {
          "indexed": true,
          "internalType": "address",
          "name": "merchant",
          "type": "address"
        },
        {
          "indexed": true,
          "internalType": "address",
          "name": "token",
          "type": "address"
        },
        {
          "indexed": true,
          "internalType": "uint256",
          "name": "amount",
          "type": "uint256"
        }
      ],
      "name": "MerchantUnstaked",
      "type": "event"
    },
    {
      "anonymous": false,
      "inputs": [
        {
          "indexed": true,
          "internalType": "uint256",
          "name": "appealId",
          "type": "uint256"
        },
        {
          "indexed": true,
          "internalType": "address",
          "name": "merchant",
          "type": "address"
        },
        {
          "indexed": true,
          "internalType": "bool",
          "name": "settled",
          "type": "bool"
        },
        {
          "indexed": false,
          "internalType": "enum OptimisticP2P.AppealDecision",
          "name": "vote",
          "type": "uint8"
        },
        {
          "indexed": false,
          "internalType": "enum OptimisticP2P.AppealDecision",
          "name": "merchantVote",
          "type": "uint8"
        },
        {
          "indexed": false,
          "internalType": "enum OptimisticP2P.AppealDecision",
          "name": "traderVote",
          "type": "uint8"
        }
      ],
      "name": "MerchantVoted",
      "type": "event"
    },
    {
      "anonymous": false,
      "inputs": [
        {
          "indexed": true,
          "internalType": "address",
          "name": "merchant",
          "type": "address"
        }
      ],
      "name": "NewMerchant",
      "type": "event"
    },
    {
      "anonymous": false,
      "inputs": [
        {
          "indexed": true,
          "internalType": "address",
          "name": "token",
          "type": "address"
        },
        {
          "indexed": true,
          "internalType": "string",
          "name": "currency",
          "type": "string"
        },
        {
          "indexed": true,
          "internalType": "bytes32",
          "name": "paymentMethod",
          "type": "bytes32"
        },
        {
          "indexed": false,
          "internalType": "uint256",
          "name": "offerId",
          "type": "uint256"
        },
        {
          "indexed": false,
          "internalType": "uint256",
          "name": "rate",
          "type": "uint256"
        },
        {
          "indexed": false,
          "internalType": "uint256",
          "name": "minOrder",
          "type": "uint256"
        },
        {
          "indexed": false,
          "internalType": "uint256",
          "name": "maxOrder",
          "type": "uint256"
        },
        {
          "indexed": false,
          "internalType": "bool",
          "name": "active",
          "type": "bool"
        },
        {
          "indexed": false,
          "internalType": "address",
          "name": "merchant",
          "type": "address"
        },
        {
          "indexed": false,
          "internalType": "bytes32",
          "name": "accountHash",
          "type": "bytes32"
        },
        {
          "indexed": false,
          "internalType": "address",
          "name": "depositAddress",
          "type": "address"
        },
        {
          "indexed": false,
          "internalType": "enum OptimisticP2P.TradeType",
          "name": "offerType",
          "type": "uint8"
        }
      ],
      "name": "NewOffer",
      "type": "event"
    },
    {
      "anonymous": false,
      "inputs": [
        {
          "indexed": true,
          "internalType": "uint256",
          "name": "offerId",
          "type": "uint256"
        },
        {
          "indexed": true,
          "internalType": "address",
          "name": "trader",
          "type": "address"
        },
        {
          "indexed": true,
          "internalType": "enum OptimisticP2P.TradeType",
          "name": "orderType",
          "type": "uint8"
        },
        {
          "indexed": false,
          "internalType": "uint256",
          "name": "quantity",
          "type": "uint256"
        },
        {
          "indexed": false,
          "internalType": "address",
          "name": "depositAddress",
          "type": "address"
        },
        {
          "indexed": false,
          "internalType": "bytes32",
          "name": "accountHash",
          "type": "bytes32"
        },
        {
          "indexed": false,
          "internalType": "uint256",
          "name": "appealId",
          "type": "uint256"
        },
        {
          "indexed": false,
          "internalType": "enum OptimisticP2P.OrderState",
          "name": "status",
          "type": "uint8"
        }
      ],
      "name": "NewOrder",
      "type": "event"
    },
    {
      "anonymous": false,
      "inputs": [
        {
          "indexed": true,
          "internalType": "address",
          "name": "settler",
          "type": "address"
        }
      ],
      "name": "NewSettler",
      "type": "event"
    },
    {
      "anonymous": false,
      "inputs": [
        {
          "indexed": true,
          "internalType": "address",
          "name": "trader",
          "type": "address"
        }
      ],
      "name": "NewTrader",
      "type": "event"
    },
    {
      "anonymous": false,
      "inputs": [
        {
          "indexed": true,
          "internalType": "uint256",
          "name": "offerId",
          "type": "uint256"
        },
        {
          "indexed": true,
          "internalType": "bool",
          "name": "active",
          "type": "bool"
        }
      ],
      "name": "OfferDisabled",
      "type": "event"
    },
    {
      "anonymous": false,
      "inputs": [
        {
          "indexed": true,
          "internalType": "uint256",
          "name": "offerId",
          "type": "uint256"
        },
        {
          "indexed": true,
          "internalType": "bool",
          "name": "active",
          "type": "bool"
        }
      ],
      "name": "OfferEnabled",
      "type": "event"
    },
    {
      "anonymous": false,
      "inputs": [
        {
          "indexed": true,
          "internalType": "uint256",
          "name": "orderId",
          "type": "uint256"
        },
        {
          "indexed": false,
          "internalType": "enum OptimisticP2P.OrderState",
          "name": "status",
          "type": "uint8"
        }
      ],
      "name": "OrderAccepted",
      "type": "event"
    },
    {
      "anonymous": false,
      "inputs": [
        {
          "indexed": true,
          "internalType": "uint256",
          "name": "orderId",
          "type": "uint256"
        },
        {
          "indexed": true,
          "internalType": "uint256",
          "name": "appealId",
          "type": "uint256"
        },
        {
          "indexed": true,
          "internalType": "address",
          "name": "appealer",
          "type": "address"
        },
        {
          "indexed": false,
          "internalType": "bytes32",
          "name": "reasonHash",
          "type": "bytes32"
        },
        {
          "indexed": false,
          "internalType": "enum OptimisticP2P.AppealDecision",
          "name": "daoVote",
          "type": "uint8"
        },
        {
          "indexed": false,
          "internalType": "enum OptimisticP2P.AppealDecision",
          "name": "appealDecision",
          "type": "uint8"
        },
        {
          "indexed": false,
          "internalType": "enum OptimisticP2P.OrderState",
          "name": "status",
          "type": "uint8"
        }
      ],
      "name": "OrderAppealed",
      "type": "event"
    },
    {
      "anonymous": false,
      "inputs": [
        {
          "indexed": true,
          "internalType": "uint256",
          "name": "orderId",
          "type": "uint256"
        },
        {
          "indexed": false,
          "internalType": "enum OptimisticP2P.OrderState",
          "name": "status",
          "type": "uint8"
        }
      ],
      "name": "OrderCancelled",
      "type": "event"
    },
    {
      "anonymous": false,
      "inputs": [
        {
          "indexed": true,
          "internalType": "uint256",
          "name": "orderId",
          "type": "uint256"
        },
        {
          "indexed": false,
          "internalType": "enum OptimisticP2P.OrderState",
          "name": "status",
          "type": "uint8"
        }
      ],
      "name": "OrderPaid",
      "type": "event"
    },
    {
      "anonymous": false,
      "inputs": [
        {
          "indexed": true,
          "internalType": "uint256",
          "name": "orderId",
          "type": "uint256"
        },
        {
          "indexed": false,
          "internalType": "enum OptimisticP2P.OrderState",
          "name": "status",
          "type": "uint8"
        }
      ],
      "name": "OrderReleased",
      "type": "event"
    },
    {
      "anonymous": false,
      "inputs": [
        {
          "indexed": true,
          "internalType": "address",
          "name": "previousOwner",
          "type": "address"
        },
        {
          "indexed": true,
          "internalType": "address",
          "name": "newOwner",
          "type": "address"
        }
      ],
      "name": "OwnershipTransferred",
      "type": "event"
    },
    {
      "anonymous": false,
      "inputs": [
        {
          "indexed": true,
          "internalType": "uint256",
          "name": "orderId",
          "type": "uint256"
        },
        {
          "indexed": true,
          "internalType": "uint256",
          "name": "appealId",
          "type": "uint256"
        },
        {
          "indexed": false,
          "internalType": "address[]",
          "name": "affected",
          "type": "address[]"
        }
      ],
      "name": "PenaltySlashed",
      "type": "event"
    },
    {
      "anonymous": false,
      "inputs": [
        {
          "indexed": true,
          "internalType": "uint256",
          "name": "orderId",
          "type": "uint256"
        },
        {
          "indexed": true,
          "internalType": "uint256",
          "name": "appealId",
          "type": "uint256"
        },
        {
          "indexed": false,
          "internalType": "address[]",
          "name": "beneficiaries",
          "type": "address[]"
        }
      ],
      "name": "RewardDistributed",
      "type": "event"
    },
    {
      "anonymous": false,
      "inputs": [
        {
          "indexed": true,
          "internalType": "address",
          "name": "settler",
          "type": "address"
        },
        {
          "indexed": true,
          "internalType": "address",
          "name": "token",
          "type": "address"
        },
        {
          "indexed": true,
          "internalType": "uint256",
          "name": "amount",
          "type": "uint256"
        }
      ],
      "name": "SettlerStaked",
      "type": "event"
    },
    {
      "anonymous": false,
      "inputs": [
        {
          "indexed": true,
          "internalType": "address",
          "name": "settler",
          "type": "address"
        },
        {
          "indexed": true,
          "internalType": "address",
          "name": "token",
          "type": "address"
        },
        {
          "indexed": true,
          "internalType": "uint256",
          "name": "amount",
          "type": "uint256"
        }
      ],
      "name": "SettlerUnstaked",
      "type": "event"
    },
    {
      "anonymous": false,
      "inputs": [
        {
          "indexed": true,
          "internalType": "uint256",
          "name": "appealId",
          "type": "uint256"
        },
        {
          "indexed": true,
          "internalType": "address",
          "name": "settler",
          "type": "address"
        },
        {
          "indexed": true,
          "internalType": "bool",
          "name": "settled",
          "type": "bool"
        },
        {
          "indexed": false,
          "internalType": "enum OptimisticP2P.AppealDecision",
          "name": "settlerVote",
          "type": "uint8"
        },
        {
          "indexed": false,
          "internalType": "enum OptimisticP2P.AppealDecision",
          "name": "merchantVote",
          "type": "uint8"
        },
        {
          "indexed": false,
          "internalType": "enum OptimisticP2P.AppealDecision",
          "name": "traderVote",
          "type": "uint8"
        }
      ],
      "name": "SettlerVoted",
      "type": "event"
    },
    {
      "anonymous": false,
      "inputs": [
        {
          "indexed": true,
          "internalType": "address",
          "name": "token",
          "type": "address"
        }
      ],
      "name": "TokenAdded",
      "type": "event"
    },
    {
      "anonymous": false,
      "inputs": [
        {
          "indexed": true,
          "internalType": "address",
          "name": "token",
          "type": "address"
        }
      ],
      "name": "TokenRemoved",
      "type": "event"
    },
    {
      "anonymous": false,
      "inputs": [
        {
          "indexed": true,
          "internalType": "uint256",
          "name": "appealId",
          "type": "uint256"
        },
        {
          "indexed": true,
          "internalType": "address",
          "name": "trader",
          "type": "address"
        },
        {
          "indexed": true,
          "internalType": "bool",
          "name": "settled",
          "type": "bool"
        },
        {
          "indexed": false,
          "internalType": "enum OptimisticP2P.AppealDecision",
          "name": "vote",
          "type": "uint8"
        },
        {
          "indexed": false,
          "internalType": "enum OptimisticP2P.AppealDecision",
          "name": "merchantVote",
          "type": "uint8"
        },
        {
          "indexed": false,
          "internalType": "enum OptimisticP2P.AppealDecision",
          "name": "traderVote",
          "type": "uint8"
        }
      ],
      "name": "TraderVoted",
      "type": "event"
    },
    {
      "inputs": [
        {
          "internalType": "uint256",
          "name": "orderId",
          "type": "uint256"
        }
      ],
      "name": "acceptOrder",
      "outputs": [],
      "stateMutability": "nonpayable",
      "type": "function"
    },
    {
      "inputs": [
        {
          "internalType": "address",
          "name": "token",
          "type": "address"
        }
      ],
      "name": "addToken",
      "outputs": [],
      "stateMutability": "nonpayable",
      "type": "function"
    },
    {
      "inputs": [
        {
          "internalType": "uint256",
          "name": "orderId",
          "type": "uint256"
        },
        {
          "internalType": "bytes32",
          "name": "reasonHash",
          "type": "bytes32"
        }
      ],
      "name": "appealOrder",
      "outputs": [],
      "stateMutability": "nonpayable",
      "type": "function"
    },
    {
      "inputs": [
        {
          "internalType": "uint256",
          "name": "",
          "type": "uint256"
        }
      ],
      "name": "appeals",
      "outputs": [
        {
          "internalType": "uint256",
          "name": "orderId",
          "type": "uint256"
        },
        {
          "internalType": "address",
          "name": "appealer",
          "type": "address"
        },
        {
          "internalType": "bytes32",
          "name": "reasonHash",
          "type": "bytes32"
        },
        {
          "internalType": "enum OptimisticP2P.AppealDecision",
          "name": "daoVote",
          "type": "uint8"
        },
        {
          "internalType": "enum OptimisticP2P.AppealDecision",
          "name": "appealDecision",
          "type": "uint8"
        }
      ],
      "stateMutability": "view",
      "type": "function"
    },
    {
      "inputs": [
        {
          "internalType": "uint256",
          "name": "orderId",
          "type": "uint256"
        }
      ],
      "name": "cancelOrder",
      "outputs": [],
      "stateMutability": "nonpayable",
      "type": "function"
    },
    {
      "inputs": [
        {
          "internalType": "address",
          "name": "token",
          "type": "address"
        },
        {
          "internalType": "string",
          "name": "currency",
          "type": "string"
        },
        {
          "internalType": "bytes32",
          "name": "paymentMethod",
          "type": "bytes32"
        },
        {
          "internalType": "uint256",
          "name": "rate",
          "type": "uint256"
        },
        {
          "internalType": "uint256",
          "name": "minOrder",
          "type": "uint256"
        },
        {
          "internalType": "uint256",
          "name": "maxOrder",
          "type": "uint256"
        },
        {
          "internalType": "bytes32",
          "name": "accountHash",
          "type": "bytes32"
        },
        {
          "internalType": "address",
          "name": "depositAddress",
          "type": "address"
        },
        {
          "internalType": "enum OptimisticP2P.TradeType",
          "name": "offerType",
          "type": "uint8"
        }
      ],
      "name": "createOffer",
      "outputs": [],
      "stateMutability": "nonpayable",
      "type": "function"
    },
    {
      "inputs": [
        {
          "internalType": "uint256",
          "name": "offerId",
          "type": "uint256"
        },
        {
          "internalType": "enum OptimisticP2P.TradeType",
          "name": "orderType",
          "type": "uint8"
        },
        {
          "internalType": "uint256",
          "name": "quantity",
          "type": "uint256"
        },
        {
          "internalType": "address",
          "name": "depositAddress",
          "type": "address"
        },
        {
          "internalType": "bytes32",
          "name": "accountHash",
          "type": "bytes32"
        }
      ],
      "name": "createOrder",
      "outputs": [],
      "stateMutability": "nonpayable",
      "type": "function"
    },
    {
      "inputs": [],
      "name": "daoAddress",
      "outputs": [
        {
          "internalType": "address",
          "name": "",
          "type": "address"
        }
      ],
      "stateMutability": "view",
      "type": "function"
    },
    {
      "inputs": [
        {
          "internalType": "uint256",
          "name": "offerId",
          "type": "uint256"
        }
      ],
      "name": "disableOffer",
      "outputs": [],
      "stateMutability": "nonpayable",
      "type": "function"
    },
    {
      "inputs": [
        {
          "internalType": "uint256",
          "name": "offerId",
          "type": "uint256"
        }
      ],
      "name": "enableOffer",
      "outputs": [],
      "stateMutability": "nonpayable",
      "type": "function"
    },
    {
      "inputs": [
        {
          "internalType": "address",
          "name": "",
          "type": "address"
        },
        {
          "internalType": "address",
          "name": "",
          "type": "address"
        }
      ],
      "name": "merchantOrders",
      "outputs": [
        {
          "internalType": "uint256",
          "name": "",
          "type": "uint256"
        }
      ],
      "stateMutability": "view",
      "type": "function"
    },
    {
      "inputs": [
        {
          "internalType": "address",
          "name": "token",
          "type": "address"
        },
        {
          "internalType": "uint256",
          "name": "amount",
          "type": "uint256"
        }
      ],
      "name": "merchantStake",
      "outputs": [],
      "stateMutability": "nonpayable",
      "type": "function"
    },
    {
      "inputs": [
        {
          "internalType": "address",
          "name": "",
          "type": "address"
        },
        {
          "internalType": "address",
          "name": "",
          "type": "address"
        }
      ],
      "name": "merchantStakes",
      "outputs": [
        {
          "internalType": "uint256",
          "name": "",
          "type": "uint256"
        }
      ],
      "stateMutability": "view",
      "type": "function"
    },
    {
      "inputs": [
        {
          "internalType": "address",
          "name": "token",
          "type": "address"
        },
        {
          "internalType": "uint256",
          "name": "amount",
          "type": "uint256"
        }
      ],
      "name": "merchantUnstake",
      "outputs": [],
      "stateMutability": "nonpayable",
      "type": "function"
    },
    {
      "inputs": [
        {
          "internalType": "address",
          "name": "",
          "type": "address"
        }
      ],
      "name": "merchants",
      "outputs": [
        {
          "internalType": "enum OptimisticP2P.KYCLevel",
          "name": "kycLevel",
          "type": "uint8"
        },
        {
          "internalType": "uint256",
          "name": "reputation",
          "type": "uint256"
        }
      ],
      "stateMutability": "view",
      "type": "function"
    },
    {
      "inputs": [
        {
          "internalType": "uint256",
          "name": "",
          "type": "uint256"
        }
      ],
      "name": "offers",
      "outputs": [
        {
          "internalType": "address",
          "name": "token",
          "type": "address"
        },
        {
          "internalType": "string",
          "name": "currency",
          "type": "string"
        },
        {
          "internalType": "bytes32",
          "name": "paymentMethod",
          "type": "bytes32"
        },
        {
          "internalType": "uint256",
          "name": "rate",
          "type": "uint256"
        },
        {
          "internalType": "uint256",
          "name": "minOrder",
          "type": "uint256"
        },
        {
          "internalType": "uint256",
          "name": "maxOrder",
          "type": "uint256"
        },
        {
          "internalType": "bool",
          "name": "active",
          "type": "bool"
        },
        {
          "internalType": "address",
          "name": "merchant",
          "type": "address"
        },
        {
          "internalType": "bytes32",
          "name": "accountHash",
          "type": "bytes32"
        },
        {
          "internalType": "address",
          "name": "depositAddress",
          "type": "address"
        },
        {
          "internalType": "enum OptimisticP2P.TradeType",
          "name": "offerType",
          "type": "uint8"
        }
      ],
      "stateMutability": "view",
      "type": "function"
    },
    {
      "inputs": [
        {
          "internalType": "uint256",
          "name": "",
          "type": "uint256"
        }
      ],
      "name": "orders",
      "outputs": [
        {
          "internalType": "uint256",
          "name": "offerId",
          "type": "uint256"
        },
        {
          "internalType": "address",
          "name": "trader",
          "type": "address"
        },
        {
          "internalType": "enum OptimisticP2P.TradeType",
          "name": "orderType",
          "type": "uint8"
        },
        {
          "internalType": "uint256",
          "name": "quantity",
          "type": "uint256"
        },
        {
          "internalType": "address",
          "name": "depositAddress",
          "type": "address"
        },
        {
          "internalType": "bytes32",
          "name": "accountHash",
          "type": "bytes32"
        },
        {
          "internalType": "uint256",
          "name": "appealId",
          "type": "uint256"
        },
        {
          "internalType": "enum OptimisticP2P.OrderState",
          "name": "status",
          "type": "uint8"
        }
      ],
      "stateMutability": "view",
      "type": "function"
    },
    {
      "inputs": [],
      "name": "owner",
      "outputs": [
        {
          "internalType": "address",
          "name": "",
          "type": "address"
        }
      ],
      "stateMutability": "view",
      "type": "function"
    },
    {
      "inputs": [
        {
          "internalType": "uint256",
          "name": "orderId",
          "type": "uint256"
        }
      ],
      "name": "payOrder",
      "outputs": [],
      "stateMutability": "nonpayable",
      "type": "function"
    },
    {
      "inputs": [],
      "name": "registerMerchant",
      "outputs": [],
      "stateMutability": "nonpayable",
      "type": "function"
    },
    {
      "inputs": [],
      "name": "registerSettler",
      "outputs": [],
      "stateMutability": "nonpayable",
      "type": "function"
    },
    {
      "inputs": [
        {
          "internalType": "uint256",
          "name": "orderId",
          "type": "uint256"
        }
      ],
      "name": "releaseOrder",
      "outputs": [],
      "stateMutability": "nonpayable",
      "type": "function"
    },
    {
      "inputs": [
        {
          "internalType": "address",
          "name": "token",
          "type": "address"
        }
      ],
      "name": "removeToken",
      "outputs": [],
      "stateMutability": "nonpayable",
      "type": "function"
    },
    {
      "inputs": [],
      "name": "renounceOwnership",
      "outputs": [],
      "stateMutability": "nonpayable",
      "type": "function"
    },
    {
      "inputs": [
        {
          "internalType": "address",
          "name": "token",
          "type": "address"
        },
        {
          "internalType": "uint256",
          "name": "amount",
          "type": "uint256"
        }
      ],
      "name": "setterUnstake",
      "outputs": [],
      "stateMutability": "nonpayable",
      "type": "function"
    },
    {
      "inputs": [
        {
          "internalType": "address",
          "name": "",
          "type": "address"
        },
        {
          "internalType": "address",
          "name": "",
          "type": "address"
        }
      ],
      "name": "settlerSettlements",
      "outputs": [
        {
          "internalType": "uint256",
          "name": "",
          "type": "uint256"
        }
      ],
      "stateMutability": "view",
      "type": "function"
    },
    {
      "inputs": [
        {
          "internalType": "address",
          "name": "token",
          "type": "address"
        },
        {
          "internalType": "uint256",
          "name": "amount",
          "type": "uint256"
        }
      ],
      "name": "settlerStake",
      "outputs": [],
      "stateMutability": "nonpayable",
      "type": "function"
    },
    {
      "inputs": [
        {
          "internalType": "address",
          "name": "",
          "type": "address"
        },
        {
          "internalType": "address",
          "name": "",
          "type": "address"
        }
      ],
      "name": "settlerStakes",
      "outputs": [
        {
          "internalType": "uint256",
          "name": "",
          "type": "uint256"
        }
      ],
      "stateMutability": "view",
      "type": "function"
    },
    {
      "inputs": [
        {
          "internalType": "address",
          "name": "",
          "type": "address"
        }
      ],
      "name": "settlers",
      "outputs": [
        {
          "internalType": "enum OptimisticP2P.KYCLevel",
          "name": "kycLevel",
          "type": "uint8"
        },
        {
          "internalType": "uint256",
          "name": "reputation",
          "type": "uint256"
        }
      ],
      "stateMutability": "view",
      "type": "function"
    },
    {
      "inputs": [
        {
          "internalType": "address",
          "name": "",
          "type": "address"
        }
      ],
      "name": "tradedTokens",
      "outputs": [
        {
          "internalType": "bool",
          "name": "",
          "type": "bool"
        }
      ],
      "stateMutability": "view",
      "type": "function"
    },
    {
      "inputs": [
        {
          "internalType": "address",
          "name": "",
          "type": "address"
        }
      ],
      "name": "traders",
      "outputs": [
        {
          "internalType": "enum OptimisticP2P.KYCLevel",
          "name": "kycLevel",
          "type": "uint8"
        },
        {
          "internalType": "uint256",
          "name": "reputation",
          "type": "uint256"
        }
      ],
      "stateMutability": "view",
      "type": "function"
    },
    {
      "inputs": [
        {
          "internalType": "address",
          "name": "newOwner",
          "type": "address"
        }
      ],
      "name": "transferOwnership",
      "outputs": [],
      "stateMutability": "nonpayable",
      "type": "function"
    }
  ],
  "bytecode": "0x6080806040523461008557331561006f5760008054336001600160a01b0319808316821784556040519390926001600160a01b0316907f8be0079c531659141344cd1fd0a4f28419497f9722a3daafe3b4186f6b6457e09080a33390600154161760015561112e908161008b8239f35b631e4fbdf760e01b815260006004820152602490fd5b600080fdfe6080604081815260048036101561001557600080fd5b600092833560e01c90816309ee877014610fbb575080632131c68c14610f925780632a685d3c14610f4f5780633104784a14610f065780634520619614610ecd578063514fcac714610e8a5780635fa7b58414610e405780636f1b15c614610e2c578063715018a614610dd2578381637bdd407814610d97575080638993093c14610d495780638a72ea6a14610a815780638d206ddc14610a335780638da5cb5b14610a0b5780638ed9613a146109c357806392a88fa21461097c57806399eb40f514610933578063a2bc878d146108e5578063a6dc648c14610897578063a85c38ef14610708578063aa38c2d7146105b4578063acff8687146104c0578063ae2f75891461047e578063c70a900f14610437578063cdb3e1e3146103fe57838163d35c85d3146103c057508063d48bfca714610373578063d50831881461032a578063ee14e939146102db578063ef18e9ed14610298578063f2fde38b146102125763fd0faf401461018757600080fd5b3461020e5760a036600319011261020e5760243591600283101561020a576064356001600160a01b03811691908290036102065780519160443583526020830152608435908201528360608201528360808201527f067c452a2be7d1744fe650d22e2ddae08c2288aa5cd68f344183e1e8015b035360a033933592a480f35b8480fd5b8380fd5b8280fd5b503461020e57602036600319011261020e5761022c610ff6565b906102356110cc565b6001600160a01b0391821692831561028257505082546001600160a01b0319811683178455167f8be0079c531659141344cd1fd0a4f28419497f9722a3daafe3b4186f6b6457e08380a380f35b51631e4fbdf760e01b8152908101849052602490fd5b50903461020e57602036600319011261020e5760207f86d14c13a668b9cf92d0c568d883626bcd7f16b88c29dd845456bbd1ebb11b05915192600184523592a280f35b505034610326576020366003190112610326579081906001600160a01b03610301610ff6565b168152600260205220610322600160ff8354169201549251928392836110a5565b0390f35b5080fd5b50503461032657806003193601126103265780602092610348610ff6565b610350611011565b6001600160a01b0391821683526007865283832091168252845220549051908152f35b83346103bd5760203660031901126103bd576001600160a01b03610395610ff6565b167f784c8f4dbf0ffedd6e72c76501c545a70f8b203b30a26ce542bf92ba87c248a48280a280f35b80fd5b8083346103fb5760203660031901126103fb57357fbca05a428feb494902fafd6969ded99d753376662d1dbbee28d3e7f6940302d28280a380f35b50fd5b83346103bd57806003193601126103bd57337f9663d922bbc250e8d974501d76ed29effb34ff751262543efd9d16393fb272ac8280a280f35b505034610326576020366003190112610326579081906001600160a01b0361045d610ff6565b168152600560205220610322600160ff8354169201549251928392836110a5565b50903461020e57602036600319011261020e5760207fc11721b23e8be94ebaf986214fc7391a7311ef59953db692fe2386a73b44c4069151928084523592a280f35b503461020e57602036600319011261020e5735600c5481101561020e5760056105b291600c60a095520291827fdf6966c971051c3d54ec59162606531493a51404a002842f56009d7e5cf4a8c7015492600180861b037fdf6966c971051c3d54ec59162606531493a51404a002842f56009d7e5cf4a8c882015416917fdf6966c971051c3d54ec59162606531493a51404a002842f56009d7e5cf4a8ca7fdf6966c971051c3d54ec59162606531493a51404a002842f56009d7e5cf4a8c983015492015492815195865260208601528401526105a26060840160ff83166110bf565b60ff608084019160081c166110bf565bf35b50903461020e576101208060031936011261020a576105d1610ff6565b926024359167ffffffffffffffff91828411610704573660238501121561070457838101359283116106f15750858451936106166020601f19601f8701160186611027565b8385526020850193366024828401011161020e57806024602093018637850101526001600160a01b0360e43581811693908490036106ed576101043560028110156106e9577fe071829fd456f2e84673f644d5908e067542d5cadf2e247187e13cae6f81524a946106986106df93600a54988a5192839283925192839161105f565b810103902097805197885260643560208901526084359088015260a4356060880152600160808801523360a088015260c43560c088015260e0870152610100860190611082565b604435951692a480f35b8880fd5b8780fd5b634e487b7160e01b875260419052602486fd5b8680fd5b50919034610326576020366003190112610326578235600b5481101561020e57600790600b84520291827f0175b7a638427703f0dbe7bb9bbf987a2551717b34e79f33b5b1008d1fa01db90154927f0175b7a638427703f0dbe7bb9bbf987a2551717b34e79f33b5b1008d1fa01dba8101549260018060a01b03937f0175b7a638427703f0dbe7bb9bbf987a2551717b34e79f33b5b1008d1fa01dbb83015461085b867f0175b7a638427703f0dbe7bb9bbf987a2551717b34e79f33b5b1008d1fa01dbc860154169260ff7f0175b7a638427703f0dbe7bb9bbf987a2551717b34e79f33b5b1008d1fa01dbd87015495817f0175b7a638427703f0dbe7bb9bbf987a2551717b34e79f33b5b1008d1fa01dbf7f0175b7a638427703f0dbe7bb9bbf987a2551717b34e79f33b5b1008d1fa01dbe8a0154990154169981519b8c52831660208c01528a019160a01c16611082565b6060870152608086015260a085015260c0840152600682101561088457610100838360e0820152f35b634e487b7160e01b815260218452602490fd5b505034610326573660031901126103bd576108b0610ff6565b602435906001600160a01b0316337f4af6e1f39ca2b51dee884d92d8372cb6071d39b1d62f4d3dba8b6f7309e4c6b58480a480f35b505034610326573660031901126103bd576108fe610ff6565b602435906001600160a01b0316337fb04de472a663ab6b098d5cc6c3ab7339a5bb659b84cce70325efb5dffc45c0a48480a480f35b50503461032657806003193601126103265780602092610951610ff6565b610959611011565b6001600160a01b0391821683526003865283832091168252845220549051908152f35b505034610326576020366003190112610326579081906001600160a01b036109a2610ff6565b168152600860205220610322600160ff8354169201549251928392836110a5565b503461020e578160031936011261020e5760209282916109e1610ff6565b6109e9611011565b6001600160a01b03918216845291865283832091168252845220549051908152f35b505034610326578160031936011261032657905490516001600160a01b039091168152602090f35b505034610326573660031901126103bd57610a4c610ff6565b602435906001600160a01b0316337fdfe6464cef8703714f700de05be9183d1c9cc6954970f7a906101942d3acda698480a480f35b509190346103265760208060031936011261020e578335600a5481101561020a57600990600a8552029160018060a01b0380847fc65a7bb8d6351c1cf70c95a316cc6a92839c986682d98bc35f958f4883f9d2a8015416937fc65a7bb8d6351c1cf70c95a316cc6a92839c986682d98bc35f958f4883f9d2a9810183519680918054916001918360011c93600181169c8d15610d3f575b8d8b871014610d2c5750848c52898c019c8c9695949392918b908215610d0e575050600114610cd2575b5050505003610b519087611027565b817fc65a7bb8d6351c1cf70c95a316cc6a92839c986682d98bc35f958f4883f9d2aa8201547fc65a7bb8d6351c1cf70c95a316cc6a92839c986682d98bc35f958f4883f9d2ab8301547fc65a7bb8d6351c1cf70c95a316cc6a92839c986682d98bc35f958f4883f9d2ac8401547fc65a7bb8d6351c1cf70c95a316cc6a92839c986682d98bc35f958f4883f9d2ad850154917fc65a7bb8d6351c1cf70c95a316cc6a92839c986682d98bc35f958f4883f9d2ae860154937fc65a7bb8d6351c1cf70c95a316cc6a92839c986682d98bc35f958f4883f9d2af870154967fc65a7bb8d6351c1cf70c95a316cc6a92839c986682d98bc35f958f4883f9d2b001549880519d8e809e819e6101609e8f918452830152519c8d9101528b6101809e8f01610c7a9261105f565b8b015260608a0152608089015260a088015260ff8116151560c088015260081c1660e0860152610100850152811661012084015261014083019060a01c60ff1690610cc491611082565b601f01601f19168101030190f35b89945081939291528383205b828410610cf45750505082010138808080610b42565b849295829585835492010152019101909287928a94610cde565b9450955050505060ff19168a52151560051b82010138808080610b42565b634e487b7160e01b845260229052602483fd5b94607f1694610b18565b505034610326573660031901126103bd57610d62610ff6565b602435906001600160a01b0316337fd7396f9c0ad69296ce1ef9e04a46ca10d5fcce37304489d8163508afe2b471578480a480f35b8083346103fb5760203660031901126103fb57357f1cc2560245412f42ec4cb43d7a846c5d74d0ecdcb503dac5d356ca5fbae24a038280a380f35b83346103bd57806003193601126103bd57610deb6110cc565b80546001600160a01b03198116825581906001600160a01b03167f8be0079c531659141344cd1fd0a4f28419497f9722a3daafe3b4186f6b6457e08280a380f35b505034610326573660031901126103bd5780f35b83346103bd5760203660031901126103bd576001600160a01b03610e62610ff6565b167f4c910b69fe65a61f7531b9c5042b2329ca7179c77290aa7e2eb3afa3c8511fd38280a280f35b50903461020e57602036600319011261020e5760207ff404c15700592d9690546f9fc0e1b755b9f0ac4ac2659429074718de894f7f76915192600584523592a280f35b83346103bd57806003193601126103bd57337f25a26f626c526dc75477900e1c35e10f7ac8effa4c8e1f2cc36da3e4145f7f2b8280a280f35b50503461032657806003193601126103265780602092610f24610ff6565b610f2c611011565b6001600160a01b0391821683526006865283832091168252845220549051908152f35b50903461020e57602036600319011261020e5760207fc11721b23e8be94ebaf986214fc7391a7311ef59953db692fe2386a73b44c406915192600284523592a280f35b50503461032657816003193601126103265760015490516001600160a01b039091168152602090f35b8490843461020e57602036600319011261020e5760209260ff91906001600160a01b03610fe6610ff6565b1681526009855220541615158152f35b600435906001600160a01b038216820361100c57565b600080fd5b602435906001600160a01b038216820361100c57565b90601f8019910116810190811067ffffffffffffffff82111761104957604052565b634e487b7160e01b600052604160045260246000fd5b60005b8381106110725750506000910152565b8181015183820152602001611062565b90600282101561108f5752565b634e487b7160e01b600052602160045260246000fd5b9291906040840193600482101561108f5760209181520152565b90600382101561108f5752565b6000546001600160a01b031633036110e057565b60405163118cdaa760e01b8152336004820152602490fdfea26469706673582212204859e52e06daab5be939139886bd74634bbb060cb6e19983715004171a5cea9e64736f6c63430008180033",
  "linkReferences": {},
  "deployedLinkReferences": {}
}